{
  "_format": "hh-sol-artifact-1",
  "contractName": "SkillVerificationNFT",
  "sourceName": "contracts/SkillVerificationNFT.sol",
  "abi": [
    {
      "inputs": [],
      "stateMutability": "nonpayable",
      "type": "constructor"
    },
    {
      "inputs": [
        {
          "internalType": "address",
          "name": "sender",
          "type": "address"
        },
        {
          "internalType": "uint256",
          "name": "tokenId",
          "type": "uint256"
        },
        {
          "internalType": "address",
          "name": "owner",
          "type": "address"
        }
      ],
      "name": "ERC721IncorrectOwner",
      "type": "error"
    },
    {
      "inputs": [
        {
          "internalType": "address",
          "name": "operator",
          "type": "address"
        },
        {
          "internalType": "uint256",
          "name": "tokenId",
          "type": "uint256"
        }
      ],
      "name": "ERC721InsufficientApproval",
      "type": "error"
    },
    {
      "inputs": [
        {
          "internalType": "address",
          "name": "approver",
          "type": "address"
        }
      ],
      "name": "ERC721InvalidApprover",
      "type": "error"
    },
    {
      "inputs": [
        {
          "internalType": "address",
          "name": "operator",
          "type": "address"
        }
      ],
      "name": "ERC721InvalidOperator",
      "type": "error"
    },
    {
      "inputs": [
        {
          "internalType": "address",
          "name": "owner",
          "type": "address"
        }
      ],
      "name": "ERC721InvalidOwner",
      "type": "error"
    },
    {
      "inputs": [
        {
          "internalType": "address",
          "name": "receiver",
          "type": "address"
        }
      ],
      "name": "ERC721InvalidReceiver",
      "type": "error"
    },
    {
      "inputs": [
        {
          "internalType": "address",
          "name": "sender",
          "type": "address"
        }
      ],
      "name": "ERC721InvalidSender",
      "type": "error"
    },
    {
      "inputs": [
        {
          "internalType": "uint256",
          "name": "tokenId",
          "type": "uint256"
        }
      ],
      "name": "ERC721NonexistentToken",
      "type": "error"
    },
    {
      "inputs": [
        {
          "internalType": "address",
          "name": "owner",
          "type": "address"
        }
      ],
      "name": "OwnableInvalidOwner",
      "type": "error"
    },
    {
      "inputs": [
        {
          "internalType": "address",
          "name": "account",
          "type": "address"
        }
      ],
      "name": "OwnableUnauthorizedAccount",
      "type": "error"
    },
    {
      "anonymous": false,
      "inputs": [
        {
          "indexed": true,
          "internalType": "address",
          "name": "owner",
          "type": "address"
        },
        {
          "indexed": true,
          "internalType": "address",
          "name": "approved",
          "type": "address"
        },
        {
          "indexed": true,
          "internalType": "uint256",
          "name": "tokenId",
          "type": "uint256"
        }
      ],
      "name": "Approval",
      "type": "event"
    },
    {
      "anonymous": false,
      "inputs": [
        {
          "indexed": true,
          "internalType": "address",
          "name": "owner",
          "type": "address"
        },
        {
          "indexed": true,
          "internalType": "address",
          "name": "operator",
          "type": "address"
        },
        {
          "indexed": false,
          "internalType": "bool",
          "name": "approved",
          "type": "bool"
        }
      ],
      "name": "ApprovalForAll",
      "type": "event"
    },
    {
      "anonymous": false,
      "inputs": [
        {
          "indexed": true,
          "internalType": "address",
          "name": "previousOwner",
          "type": "address"
        },
        {
          "indexed": true,
          "internalType": "address",
          "name": "newOwner",
          "type": "address"
        }
      ],
      "name": "OwnershipTransferred",
      "type": "event"
    },
    {
      "anonymous": false,
      "inputs": [
        {
          "indexed": true,
          "internalType": "address",
          "name": "from",
          "type": "address"
        },
        {
          "indexed": true,
          "internalType": "address",
          "name": "to",
          "type": "address"
        },
        {
          "indexed": true,
          "internalType": "uint256",
          "name": "tokenId",
          "type": "uint256"
        }
      ],
      "name": "Transfer",
      "type": "event"
    },
    {
      "inputs": [
        {
          "internalType": "address",
          "name": "to",
          "type": "address"
        },
        {
          "internalType": "uint256",
          "name": "tokenId",
          "type": "uint256"
        }
      ],
      "name": "approve",
      "outputs": [],
      "stateMutability": "nonpayable",
      "type": "function"
    },
    {
      "inputs": [
        {
          "internalType": "address",
          "name": "owner",
          "type": "address"
        }
      ],
      "name": "balanceOf",
      "outputs": [
        {
          "internalType": "uint256",
          "name": "",
          "type": "uint256"
        }
      ],
      "stateMutability": "view",
      "type": "function"
    },
    {
      "inputs": [
        {
          "internalType": "uint256",
          "name": "tokenId",
          "type": "uint256"
        }
      ],
      "name": "getApproved",
      "outputs": [
        {
          "internalType": "address",
          "name": "",
          "type": "address"
        }
      ],
      "stateMutability": "view",
      "type": "function"
    },
    {
      "inputs": [
        {
          "internalType": "uint256",
          "name": "_projectId",
          "type": "uint256"
        }
      ],
      "name": "getProjectDetails",
      "outputs": [
        {
          "components": [
            {
              "internalType": "address",
              "name": "submitter",
              "type": "address"
            },
            {
              "internalType": "string",
              "name": "projectTitle",
              "type": "string"
            },
            {
              "internalType": "string",
              "name": "projectDescription",
              "type": "string"
            },
            {
              "internalType": "string",
              "name": "projectURL",
              "type": "string"
            },
            {
              "internalType": "string",
              "name": "videoURL",
              "type": "string"
            },
            {
              "internalType": "address",
              "name": "verifier",
              "type": "address"
            },
            {
              "internalType": "bool",
              "name": "isVerified",
              "type": "bool"
            },
            {
              "internalType": "uint256",
              "name": "verifiedTimestamp",
              "type": "uint256"
            }
          ],
          "internalType": "struct SkillVerificationNFT.Project",
          "name": "",
          "type": "tuple"
        }
      ],
      "stateMutability": "view",
      "type": "function"
    },
    {
      "inputs": [
        {
          "internalType": "address",
          "name": "_user",
          "type": "address"
        }
      ],
      "name": "getUserProjects",
      "outputs": [
        {
          "internalType": "uint256[]",
          "name": "",
          "type": "uint256[]"
        }
      ],
      "stateMutability": "view",
      "type": "function"
    },
    {
      "inputs": [
        {
          "internalType": "address",
          "name": "owner",
          "type": "address"
        },
        {
          "internalType": "address",
          "name": "operator",
          "type": "address"
        }
      ],
      "name": "isApprovedForAll",
      "outputs": [
        {
          "internalType": "bool",
          "name": "",
          "type": "bool"
        }
      ],
      "stateMutability": "view",
      "type": "function"
    },
    {
      "inputs": [],
      "name": "name",
      "outputs": [
        {
          "internalType": "string",
          "name": "",
          "type": "string"
        }
      ],
      "stateMutability": "view",
      "type": "function"
    },
    {
      "inputs": [],
      "name": "owner",
      "outputs": [
        {
          "internalType": "address",
          "name": "",
          "type": "address"
        }
      ],
      "stateMutability": "view",
      "type": "function"
    },
    {
      "inputs": [
        {
          "internalType": "uint256",
          "name": "tokenId",
          "type": "uint256"
        }
      ],
      "name": "ownerOf",
      "outputs": [
        {
          "internalType": "address",
          "name": "",
          "type": "address"
        }
      ],
      "stateMutability": "view",
      "type": "function"
    },
    {
      "inputs": [
        {
          "internalType": "uint256",
          "name": "",
          "type": "uint256"
        }
      ],
      "name": "projects",
      "outputs": [
        {
          "internalType": "address",
          "name": "submitter",
          "type": "address"
        },
        {
          "internalType": "string",
          "name": "projectTitle",
          "type": "string"
        },
        {
          "internalType": "string",
          "name": "projectDescription",
          "type": "string"
        },
        {
          "internalType": "string",
          "name": "projectURL",
          "type": "string"
        },
        {
          "internalType": "string",
          "name": "videoURL",
          "type": "string"
        },
        {
          "internalType": "address",
          "name": "verifier",
          "type": "address"
        },
        {
          "internalType": "bool",
          "name": "isVerified",
          "type": "bool"
        },
        {
          "internalType": "uint256",
          "name": "verifiedTimestamp",
          "type": "uint256"
        }
      ],
      "stateMutability": "view",
      "type": "function"
    },
    {
      "inputs": [],
      "name": "renounceOwnership",
      "outputs": [],
      "stateMutability": "nonpayable",
      "type": "function"
    },
    {
      "inputs": [
        {
          "internalType": "address",
          "name": "from",
          "type": "address"
        },
        {
          "internalType": "address",
          "name": "to",
          "type": "address"
        },
        {
          "internalType": "uint256",
          "name": "tokenId",
          "type": "uint256"
        }
      ],
      "name": "safeTransferFrom",
      "outputs": [],
      "stateMutability": "nonpayable",
      "type": "function"
    },
    {
      "inputs": [
        {
          "internalType": "address",
          "name": "from",
          "type": "address"
        },
        {
          "internalType": "address",
          "name": "to",
          "type": "address"
        },
        {
          "internalType": "uint256",
          "name": "tokenId",
          "type": "uint256"
        },
        {
          "internalType": "bytes",
          "name": "data",
          "type": "bytes"
        }
      ],
      "name": "safeTransferFrom",
      "outputs": [],
      "stateMutability": "nonpayable",
      "type": "function"
    },
    {
      "inputs": [
        {
          "internalType": "address",
          "name": "operator",
          "type": "address"
        },
        {
          "internalType": "bool",
          "name": "approved",
          "type": "bool"
        }
      ],
      "name": "setApprovalForAll",
      "outputs": [],
      "stateMutability": "nonpayable",
      "type": "function"
    },
    {
      "inputs": [
        {
          "internalType": "string",
          "name": "_title",
          "type": "string"
        },
        {
          "internalType": "string",
          "name": "_description",
          "type": "string"
        },
        {
          "internalType": "string",
          "name": "_projectURL",
          "type": "string"
        },
        {
          "internalType": "string",
          "name": "_videoURL",
          "type": "string"
        }
      ],
      "name": "submitProject",
      "outputs": [
        {
          "internalType": "uint256",
          "name": "",
          "type": "uint256"
        }
      ],
      "stateMutability": "nonpayable",
      "type": "function"
    },
    {
      "inputs": [
        {
          "internalType": "bytes4",
          "name": "interfaceId",
          "type": "bytes4"
        }
      ],
      "name": "supportsInterface",
      "outputs": [
        {
          "internalType": "bool",
          "name": "",
          "type": "bool"
        }
      ],
      "stateMutability": "view",
      "type": "function"
    },
    {
      "inputs": [],
      "name": "symbol",
      "outputs": [
        {
          "internalType": "string",
          "name": "",
          "type": "string"
        }
      ],
      "stateMutability": "view",
      "type": "function"
    },
    {
      "inputs": [
        {
          "internalType": "uint256",
          "name": "tokenId",
          "type": "uint256"
        }
      ],
      "name": "tokenURI",
      "outputs": [
        {
          "internalType": "string",
          "name": "",
          "type": "string"
        }
      ],
      "stateMutability": "view",
      "type": "function"
    },
    {
      "inputs": [
        {
          "internalType": "address",
          "name": "from",
          "type": "address"
        },
        {
          "internalType": "address",
          "name": "to",
          "type": "address"
        },
        {
          "internalType": "uint256",
          "name": "tokenId",
          "type": "uint256"
        }
      ],
      "name": "transferFrom",
      "outputs": [],
      "stateMutability": "nonpayable",
      "type": "function"
    },
    {
      "inputs": [
        {
          "internalType": "address",
          "name": "newOwner",
          "type": "address"
        }
      ],
      "name": "transferOwnership",
      "outputs": [],
      "stateMutability": "nonpayable",
      "type": "function"
    },
    {
      "inputs": [
        {
          "internalType": "address",
          "name": "",
          "type": "address"
        },
        {
          "internalType": "uint256",
          "name": "",
          "type": "uint256"
        }
      ],
      "name": "userProjects",
      "outputs": [
        {
          "internalType": "uint256",
          "name": "",
          "type": "uint256"
        }
      ],
      "stateMutability": "view",
      "type": "function"
    },
    {
      "inputs": [
        {
          "internalType": "uint256",
          "name": "_projectId",
          "type": "uint256"
        },
        {
          "internalType": "bool",
          "name": "_isVerified",
          "type": "bool"
        }
      ],
      "name": "verifyProject",
      "outputs": [],
      "stateMutability": "nonpayable",
      "type": "function"
    }
  ],
  "bytecode": "0x60806040523480156200001157600080fd5b50336040518060400160405280601681526020017f536b696c6c566572696669636174696f6e4261646765000000000000000000008152506040518060400160405280600381526020017f5356420000000000000000000000000000000000000000000000000000000000815250816000908162000090919062000472565b508060019081620000a2919062000472565b505050600073ffffffffffffffffffffffffffffffffffffffff168173ffffffffffffffffffffffffffffffffffffffff16036200011a5760006040517f1e4fbdf70000000000000000000000000000000000000000000000000000000081526004016200011191906200059e565b60405180910390fd5b6200012b816200013260201b60201c565b50620005bb565b6000600660009054906101000a900473ffffffffffffffffffffffffffffffffffffffff16905081600660006101000a81548173ffffffffffffffffffffffffffffffffffffffff021916908373ffffffffffffffffffffffffffffffffffffffff1602179055508173ffffffffffffffffffffffffffffffffffffffff168173ffffffffffffffffffffffffffffffffffffffff167f8be0079c531659141344cd1fd0a4f28419497f9722a3daafe3b4186f6b6457e060405160405180910390a35050565b600081519050919050565b7f4e487b7100000000000000000000000000000000000000000000000000000000600052604160045260246000fd5b7f4e487b7100000000000000000000000000000000000000000000000000000000600052602260045260246000fd5b600060028204905060018216806200027a57607f821691505b60208210810362000290576200028f62000232565b5b50919050565b60008190508160005260206000209050919050565b60006020601f8301049050919050565b600082821b905092915050565b600060088302620002fa7fffffffffffffffffffffffffffffffffffffffffffffffffffffffffffffffff82620002bb565b620003068683620002bb565b95508019841693508086168417925050509392505050565b6000819050919050565b6000819050919050565b6000620003536200034d62000347846200031e565b62000328565b6200031e565b9050919050565b6000819050919050565b6200036f8362000332565b620003876200037e826200035a565b848454620002c8565b825550505050565b600090565b6200039e6200038f565b620003ab81848462000364565b505050565b5b81811015620003d357620003c760008262000394565b600181019050620003b1565b5050565b601f8211156200042257620003ec8162000296565b620003f784620002ab565b8101602085101562000407578190505b6200041f6200041685620002ab565b830182620003b0565b50505b505050565b600082821c905092915050565b6000620004476000198460080262000427565b1980831691505092915050565b600062000462838362000434565b9150826002028217905092915050565b6200047d82620001f8565b67ffffffffffffffff81111562000499576200049862000203565b5b620004a5825462000261565b620004b2828285620003d7565b600060209050601f831160018114620004ea5760008415620004d5578287015190505b620004e1858262000454565b86555062000551565b601f198416620004fa8662000296565b60005b828110156200052457848901518255600182019150602085019450602081019050620004fd565b8683101562000544578489015162000540601f89168262000434565b8355505b6001600288020188555050505b505050505050565b600073ffffffffffffffffffffffffffffffffffffffff82169050919050565b6000620005868262000559565b9050919050565b620005988162000579565b82525050565b6000602082019050620005b560008301846200058d565b92915050565b61347680620005cb6000396000f3fe608060405234801561001057600080fd5b50600436106101425760003560e01c806370a08231116100b8578063b88d4fde1161007c578063b88d4fde146103a2578063c87b56dd146103be578063e32e723c146103ee578063e68366171461041e578063e985e9c51461043a578063f2fde38b1461046a57610142565b806370a0823114610310578063715018a6146103405780638da5cb5b1461034a57806395d89b4114610368578063a22cb4651461038657610142565b806323b872dd1161010a57806323b872dd146102185780632fa9c0071461023457806342842e0e146102645780635f8439e31461028057806362054f5c146102b05780636352211e146102e057610142565b806301ffc9a71461014757806306fdde0314610177578063081812fc14610195578063095ea7b3146101c5578063107046bd146101e1575b600080fd5b610161600480360381019061015c91906124a6565b610486565b60405161016e91906124ee565b60405180910390f35b61017f610568565b60405161018c9190612599565b60405180910390f35b6101af60048036038101906101aa91906125f1565b6105fa565b6040516101bc919061265f565b60405180910390f35b6101df60048036038101906101da91906126a6565b610616565b005b6101fb60048036038101906101f691906125f1565b61062c565b60405161020f9897969594939291906126f5565b60405180910390f35b610232600480360381019061022d919061278f565b6108e1565b005b61024e600480360381019061024991906126a6565b6109e3565b60405161025b91906127e2565b60405180910390f35b61027e6004803603810190610279919061278f565b610a14565b005b61029a600480360381019061029591906125f1565b610a34565b6040516102a79190612939565b60405180910390f35b6102ca60048036038101906102c59190612a90565b610d7b565b6040516102d791906127e2565b60405180910390f35b6102fa60048036038101906102f591906125f1565b610fb9565b604051610307919061265f565b60405180910390f35b61032a60048036038101906103259190612b67565b610fcb565b60405161033791906127e2565b60405180910390f35b610348611085565b005b610352611099565b60405161035f919061265f565b60405180910390f35b6103706110c3565b60405161037d9190612599565b60405180910390f35b6103a0600480360381019061039b9190612bc0565b611155565b005b6103bc60048036038101906103b79190612ca1565b61116b565b005b6103d860048036038101906103d391906125f1565b611190565b6040516103e59190612599565b60405180910390f35b61040860048036038101906104039190612b67565b6111f9565b6040516104159190612dd3565b60405180910390f35b61043860048036038101906104339190612df5565b611290565b005b610454600480360381019061044f9190612e35565b6113e3565b60405161046191906124ee565b60405180910390f35b610484600480360381019061047f9190612b67565b611477565b005b60007f80ac58cd000000000000000000000000000000000000000000000000000000007bffffffffffffffffffffffffffffffffffffffffffffffffffffffff1916827bffffffffffffffffffffffffffffffffffffffffffffffffffffffff1916148061055157507f5b5e139f000000000000000000000000000000000000000000000000000000007bffffffffffffffffffffffffffffffffffffffffffffffffffffffff1916827bffffffffffffffffffffffffffffffffffffffffffffffffffffffff1916145b806105615750610560826114fd565b5b9050919050565b60606000805461057790612ea4565b80601f01602080910402602001604051908101604052809291908181526020018280546105a390612ea4565b80156105f05780601f106105c5576101008083540402835291602001916105f0565b820191906000526020600020905b8154815290600101906020018083116105d357829003601f168201915b5050505050905090565b600061060582611567565b5061060f826115ef565b9050919050565b610628828261062361162c565b611634565b5050565b60076020528060005260406000206000915090508060000160009054906101000a900473ffffffffffffffffffffffffffffffffffffffff169080600101805461067590612ea4565b80601f01602080910402602001604051908101604052809291908181526020018280546106a190612ea4565b80156106ee5780601f106106c3576101008083540402835291602001916106ee565b820191906000526020600020905b8154815290600101906020018083116106d157829003601f168201915b50505050509080600201805461070390612ea4565b80601f016020809104026020016040519081016040528092919081815260200182805461072f90612ea4565b801561077c5780601f106107515761010080835404028352916020019161077c565b820191906000526020600020905b81548152906001019060200180831161075f57829003601f168201915b50505050509080600301805461079190612ea4565b80601f01602080910402602001604051908101604052809291908181526020018280546107bd90612ea4565b801561080a5780601f106107df5761010080835404028352916020019161080a565b820191906000526020600020905b8154815290600101906020018083116107ed57829003601f168201915b50505050509080600401805461081f90612ea4565b80601f016020809104026020016040519081016040528092919081815260200182805461084b90612ea4565b80156108985780601f1061086d57610100808354040283529160200191610898565b820191906000526020600020905b81548152906001019060200180831161087b57829003601f168201915b5050505050908060050160009054906101000a900473ffffffffffffffffffffffffffffffffffffffff16908060050160149054906101000a900460ff16908060060154905088565b600073ffffffffffffffffffffffffffffffffffffffff168273ffffffffffffffffffffffffffffffffffffffff16036109535760006040517f64a0ae9200000000000000000000000000000000000000000000000000000000815260040161094a919061265f565b60405180910390fd5b6000610967838361096261162c565b611646565b90508373ffffffffffffffffffffffffffffffffffffffff168173ffffffffffffffffffffffffffffffffffffffff16146109dd578382826040517f64283d7b0000000000000000000000000000000000000000000000000000000081526004016109d493929190612ed5565b60405180910390fd5b50505050565b600860205281600052604060002081815481106109ff57600080fd5b90600052602060002001600091509150505481565b610a2f8383836040518060200160405280600081525061116b565b505050565b610a3c6123c7565b60076000838152602001908152602001600020604051806101000160405290816000820160009054906101000a900473ffffffffffffffffffffffffffffffffffffffff1673ffffffffffffffffffffffffffffffffffffffff1673ffffffffffffffffffffffffffffffffffffffff168152602001600182018054610ac190612ea4565b80601f0160208091040260200160405190810160405280929190818152602001828054610aed90612ea4565b8015610b3a5780601f10610b0f57610100808354040283529160200191610b3a565b820191906000526020600020905b815481529060010190602001808311610b1d57829003601f168201915b50505050508152602001600282018054610b5390612ea4565b80601f0160208091040260200160405190810160405280929190818152602001828054610b7f90612ea4565b8015610bcc5780601f10610ba157610100808354040283529160200191610bcc565b820191906000526020600020905b815481529060010190602001808311610baf57829003601f168201915b50505050508152602001600382018054610be590612ea4565b80601f0160208091040260200160405190810160405280929190818152602001828054610c1190612ea4565b8015610c5e5780601f10610c3357610100808354040283529160200191610c5e565b820191906000526020600020905b815481529060010190602001808311610c4157829003601f168201915b50505050508152602001600482018054610c7790612ea4565b80601f0160208091040260200160405190810160405280929190818152602001828054610ca390612ea4565b8015610cf05780601f10610cc557610100808354040283529160200191610cf0565b820191906000526020600020905b815481529060010190602001808311610cd357829003601f168201915b505050505081526020016005820160009054906101000a900473ffffffffffffffffffffffffffffffffffffffff1673ffffffffffffffffffffffffffffffffffffffff1673ffffffffffffffffffffffffffffffffffffffff1681526020016005820160149054906101000a900460ff161515151581526020016006820154815250509050919050565b60008042863387604051602001610d959493929190612fb1565b60405160208183030381529060405280519060200120905060008160001c90506040518061010001604052803373ffffffffffffffffffffffffffffffffffffffff168152602001888152602001878152602001868152602001858152602001600073ffffffffffffffffffffffffffffffffffffffff16815260200160001515815260200160008152506007600083815260200190815260200160002060008201518160000160006101000a81548173ffffffffffffffffffffffffffffffffffffffff021916908373ffffffffffffffffffffffffffffffffffffffff1602179055506020820151816001019081610e8f91906131a3565b506040820151816002019081610ea591906131a3565b506060820151816003019081610ebb91906131a3565b506080820151816004019081610ed191906131a3565b5060a08201518160050160006101000a81548173ffffffffffffffffffffffffffffffffffffffff021916908373ffffffffffffffffffffffffffffffffffffffff16021790555060c08201518160050160146101000a81548160ff02191690831515021790555060e08201518160060155905050600860003373ffffffffffffffffffffffffffffffffffffffff1673ffffffffffffffffffffffffffffffffffffffff1681526020019081526020016000208190806001815401808255809150506001900390600052602060002001600090919091909150558092505050949350505050565b6000610fc482611567565b9050919050565b60008073ffffffffffffffffffffffffffffffffffffffff168273ffffffffffffffffffffffffffffffffffffffff160361103e5760006040517f89c62b64000000000000000000000000000000000000000000000000000000008152600401611035919061265f565b60405180910390fd5b600360008373ffffffffffffffffffffffffffffffffffffffff1673ffffffffffffffffffffffffffffffffffffffff168152602001908152602001600020549050919050565b61108d611860565b61109760006118e7565b565b6000600660009054906101000a900473ffffffffffffffffffffffffffffffffffffffff16905090565b6060600180546110d290612ea4565b80601f01602080910402602001604051908101604052809291908181526020018280546110fe90612ea4565b801561114b5780601f106111205761010080835404028352916020019161114b565b820191906000526020600020905b81548152906001019060200180831161112e57829003601f168201915b5050505050905090565b61116761116061162c565b83836119ad565b5050565b6111768484846108e1565b61118a61118161162c565b85858585611b1c565b50505050565b606061119b82611567565b5060006111a6611ccd565b905060008151116111c657604051806020016040528060008152506111f1565b806111d084611ce4565b6040516020016111e1929190613275565b6040516020818303038152906040525b915050919050565b6060600860008373ffffffffffffffffffffffffffffffffffffffff1673ffffffffffffffffffffffffffffffffffffffff16815260200190815260200160002080548060200260200160405190810160405280929190818152602001828054801561128457602002820191906000526020600020905b815481526020019060010190808311611270575b50505050509050919050565b600015156007600084815260200190815260200160002060050160149054906101000a900460ff161515146112fa576040517f08c379a00000000000000000000000000000000000000000000000000000000081526004016112f1906132e5565b60405180910390fd5b806007600084815260200190815260200160002060050160146101000a81548160ff021916908315150217905550336007600084815260200190815260200160002060050160006101000a81548173ffffffffffffffffffffffffffffffffffffffff021916908373ffffffffffffffffffffffffffffffffffffffff16021790555042600760008481526020019081526020016000206006018190555080156113df576113de6007600084815260200190815260200160002060000160009054906101000a900473ffffffffffffffffffffffffffffffffffffffff1683611db2565b5b5050565b6000600560008473ffffffffffffffffffffffffffffffffffffffff1673ffffffffffffffffffffffffffffffffffffffff16815260200190815260200160002060008373ffffffffffffffffffffffffffffffffffffffff1673ffffffffffffffffffffffffffffffffffffffff16815260200190815260200160002060009054906101000a900460ff16905092915050565b61147f611860565b600073ffffffffffffffffffffffffffffffffffffffff168173ffffffffffffffffffffffffffffffffffffffff16036114f15760006040517f1e4fbdf70000000000000000000000000000000000000000000000000000000081526004016114e8919061265f565b60405180910390fd5b6114fa816118e7565b50565b60007f01ffc9a7000000000000000000000000000000000000000000000000000000007bffffffffffffffffffffffffffffffffffffffffffffffffffffffff1916827bffffffffffffffffffffffffffffffffffffffffffffffffffffffff1916149050919050565b60008061157383611dd0565b9050600073ffffffffffffffffffffffffffffffffffffffff168173ffffffffffffffffffffffffffffffffffffffff16036115e657826040517f7e2732890000000000000000000000000000000000000000000000000000000081526004016115dd91906127e2565b60405180910390fd5b80915050919050565b60006004600083815260200190815260200160002060009054906101000a900473ffffffffffffffffffffffffffffffffffffffff169050919050565b600033905090565b6116418383836001611e0d565b505050565b60008061165284611dd0565b9050600073ffffffffffffffffffffffffffffffffffffffff168373ffffffffffffffffffffffffffffffffffffffff161461169457611693818486611fd2565b5b600073ffffffffffffffffffffffffffffffffffffffff168173ffffffffffffffffffffffffffffffffffffffff1614611725576116d6600085600080611e0d565b6001600360008373ffffffffffffffffffffffffffffffffffffffff1673ffffffffffffffffffffffffffffffffffffffff168152602001908152602001600020600082825403925050819055505b600073ffffffffffffffffffffffffffffffffffffffff168573ffffffffffffffffffffffffffffffffffffffff16146117a8576001600360008773ffffffffffffffffffffffffffffffffffffffff1673ffffffffffffffffffffffffffffffffffffffff168152602001908152602001600020600082825401925050819055505b846002600086815260200190815260200160002060006101000a81548173ffffffffffffffffffffffffffffffffffffffff021916908373ffffffffffffffffffffffffffffffffffffffff160217905550838573ffffffffffffffffffffffffffffffffffffffff168273ffffffffffffffffffffffffffffffffffffffff167fddf252ad1be2c89b69c2b068fc378daa952ba7f163c4a11628f55a4df523b3ef60405160405180910390a4809150509392505050565b61186861162c565b73ffffffffffffffffffffffffffffffffffffffff16611886611099565b73ffffffffffffffffffffffffffffffffffffffff16146118e5576118a961162c565b6040517f118cdaa70000000000000000000000000000000000000000000000000000000081526004016118dc919061265f565b60405180910390fd5b565b6000600660009054906101000a900473ffffffffffffffffffffffffffffffffffffffff16905081600660006101000a81548173ffffffffffffffffffffffffffffffffffffffff021916908373ffffffffffffffffffffffffffffffffffffffff1602179055508173ffffffffffffffffffffffffffffffffffffffff168173ffffffffffffffffffffffffffffffffffffffff167f8be0079c531659141344cd1fd0a4f28419497f9722a3daafe3b4186f6b6457e060405160405180910390a35050565b600073ffffffffffffffffffffffffffffffffffffffff168273ffffffffffffffffffffffffffffffffffffffff1603611a1e57816040517f5b08ba18000000000000000000000000000000000000000000000000000000008152600401611a15919061265f565b60405180910390fd5b80600560008573ffffffffffffffffffffffffffffffffffffffff1673ffffffffffffffffffffffffffffffffffffffff16815260200190815260200160002060008473ffffffffffffffffffffffffffffffffffffffff1673ffffffffffffffffffffffffffffffffffffffff16815260200190815260200160002060006101000a81548160ff0219169083151502179055508173ffffffffffffffffffffffffffffffffffffffff168373ffffffffffffffffffffffffffffffffffffffff167f17307eab39ab6107e8899845ad3d59bd9653f200f220920489ca2b5937696c3183604051611b0f91906124ee565b60405180910390a3505050565b60008373ffffffffffffffffffffffffffffffffffffffff163b1115611cc6578273ffffffffffffffffffffffffffffffffffffffff1663150b7a02868685856040518563ffffffff1660e01b8152600401611b7b949392919061335a565b6020604051808303816000875af1925050508015611bb757506040513d601f19601f82011682018060405250810190611bb491906133bb565b60015b611c3b573d8060008114611be7576040519150601f19603f3d011682016040523d82523d6000602084013e611bec565b606091505b506000815103611c3357836040517f64a0ae92000000000000000000000000000000000000000000000000000000008152600401611c2a919061265f565b60405180910390fd5b805181602001fd5b63150b7a0260e01b7bffffffffffffffffffffffffffffffffffffffffffffffffffffffff1916817bffffffffffffffffffffffffffffffffffffffffffffffffffffffff191614611cc457836040517f64a0ae92000000000000000000000000000000000000000000000000000000008152600401611cbb919061265f565b60405180910390fd5b505b5050505050565b606060405180602001604052806000815250905090565b606060006001611cf384612096565b01905060008167ffffffffffffffff811115611d1257611d11612965565b5b6040519080825280601f01601f191660200182016040528015611d445781602001600182028036833780820191505090505b509050600082602001820190505b600115611da7578080600190039150507f3031323334353637383961626364656600000000000000000000000000000000600a86061a8153600a8581611d9b57611d9a6133e8565b5b04945060008503611d52575b819350505050919050565b611dcc8282604051806020016040528060008152506121e9565b5050565b60006002600083815260200190815260200160002060009054906101000a900473ffffffffffffffffffffffffffffffffffffffff169050919050565b8080611e465750600073ffffffffffffffffffffffffffffffffffffffff168273ffffffffffffffffffffffffffffffffffffffff1614155b15611f7a576000611e5684611567565b9050600073ffffffffffffffffffffffffffffffffffffffff168373ffffffffffffffffffffffffffffffffffffffff1614158015611ec157508273ffffffffffffffffffffffffffffffffffffffff168173ffffffffffffffffffffffffffffffffffffffff1614155b8015611ed45750611ed281846113e3565b155b15611f1657826040517fa9fbf51f000000000000000000000000000000000000000000000000000000008152600401611f0d919061265f565b60405180910390fd5b8115611f7857838573ffffffffffffffffffffffffffffffffffffffff168273ffffffffffffffffffffffffffffffffffffffff167f8c5be1e5ebec7d5bd14f71427d1e84f3dd0314c0f7b2291e5b200ac8c7c3b92560405160405180910390a45b505b836004600085815260200190815260200160002060006101000a81548173ffffffffffffffffffffffffffffffffffffffff021916908373ffffffffffffffffffffffffffffffffffffffff16021790555050505050565b611fdd83838361220d565b61209157600073ffffffffffffffffffffffffffffffffffffffff168373ffffffffffffffffffffffffffffffffffffffff160361205257806040517f7e27328900000000000000000000000000000000000000000000000000000000815260040161204991906127e2565b60405180910390fd5b81816040517f177e802f000000000000000000000000000000000000000000000000000000008152600401612088929190613417565b60405180910390fd5b505050565b600080600090507a184f03e93ff9f4daa797ed6e38ed64bf6a1f01000000000000000083106120f4577a184f03e93ff9f4daa797ed6e38ed64bf6a1f01000000000000000083816120ea576120e96133e8565b5b0492506040810190505b6d04ee2d6d415b85acef81000000008310612131576d04ee2d6d415b85acef81000000008381612127576121266133e8565b5b0492506020810190505b662386f26fc10000831061216057662386f26fc100008381612156576121556133e8565b5b0492506010810190505b6305f5e1008310612189576305f5e100838161217f5761217e6133e8565b5b0492506008810190505b61271083106121ae5761271083816121a4576121a36133e8565b5b0492506004810190505b606483106121d157606483816121c7576121c66133e8565b5b0492506002810190505b600a83106121e0576001810190505b80915050919050565b6121f383836122ce565b6122086121fe61162c565b6000858585611b1c565b505050565b60008073ffffffffffffffffffffffffffffffffffffffff168373ffffffffffffffffffffffffffffffffffffffff16141580156122c557508273ffffffffffffffffffffffffffffffffffffffff168473ffffffffffffffffffffffffffffffffffffffff161480612286575061228584846113e3565b5b806122c457508273ffffffffffffffffffffffffffffffffffffffff166122ac836115ef565b73ffffffffffffffffffffffffffffffffffffffff16145b5b90509392505050565b600073ffffffffffffffffffffffffffffffffffffffff168273ffffffffffffffffffffffffffffffffffffffff16036123405760006040517f64a0ae92000000000000000000000000000000000000000000000000000000008152600401612337919061265f565b60405180910390fd5b600061234e83836000611646565b9050600073ffffffffffffffffffffffffffffffffffffffff168173ffffffffffffffffffffffffffffffffffffffff16146123c25760006040517f73c6ac6e0000000000000000000000000000000000000000000000000000000081526004016123b9919061265f565b60405180910390fd5b505050565b604051806101000160405280600073ffffffffffffffffffffffffffffffffffffffff16815260200160608152602001606081526020016060815260200160608152602001600073ffffffffffffffffffffffffffffffffffffffff168152602001600015158152602001600081525090565b6000604051905090565b600080fd5b600080fd5b60007fffffffff0000000000000000000000000000000000000000000000000000000082169050919050565b6124838161244e565b811461248e57600080fd5b50565b6000813590506124a08161247a565b92915050565b6000602082840312156124bc576124bb612444565b5b60006124ca84828501612491565b91505092915050565b60008115159050919050565b6124e8816124d3565b82525050565b600060208201905061250360008301846124df565b92915050565b600081519050919050565b600082825260208201905092915050565b60005b83811015612543578082015181840152602081019050612528565b60008484015250505050565b6000601f19601f8301169050919050565b600061256b82612509565b6125758185612514565b9350612585818560208601612525565b61258e8161254f565b840191505092915050565b600060208201905081810360008301526125b38184612560565b905092915050565b6000819050919050565b6125ce816125bb565b81146125d957600080fd5b50565b6000813590506125eb816125c5565b92915050565b60006020828403121561260757612606612444565b5b6000612615848285016125dc565b91505092915050565b600073ffffffffffffffffffffffffffffffffffffffff82169050919050565b60006126498261261e565b9050919050565b6126598161263e565b82525050565b60006020820190506126746000830184612650565b92915050565b6126838161263e565b811461268e57600080fd5b50565b6000813590506126a08161267a565b92915050565b600080604083850312156126bd576126bc612444565b5b60006126cb85828601612691565b92505060206126dc858286016125dc565b9150509250929050565b6126ef816125bb565b82525050565b60006101008201905061270b600083018b612650565b818103602083015261271d818a612560565b905081810360408301526127318189612560565b905081810360608301526127458188612560565b905081810360808301526127598187612560565b905061276860a0830186612650565b61277560c08301856124df565b61278260e08301846126e6565b9998505050505050505050565b6000806000606084860312156127a8576127a7612444565b5b60006127b686828701612691565b93505060206127c786828701612691565b92505060406127d8868287016125dc565b9150509250925092565b60006020820190506127f760008301846126e6565b92915050565b6128068161263e565b82525050565b600082825260208201905092915050565b600061282882612509565b612832818561280c565b9350612842818560208601612525565b61284b8161254f565b840191505092915050565b61285f816124d3565b82525050565b61286e816125bb565b82525050565b60006101008301600083015161288d60008601826127fd565b50602083015184820360208601526128a5828261281d565b915050604083015184820360408601526128bf828261281d565b915050606083015184820360608601526128d9828261281d565b915050608083015184820360808601526128f3828261281d565b91505060a083015161290860a08601826127fd565b5060c083015161291b60c0860182612856565b5060e083015161292e60e0860182612865565b508091505092915050565b600060208201905081810360008301526129538184612874565b905092915050565b600080fd5b600080fd5b7f4e487b7100000000000000000000000000000000000000000000000000000000600052604160045260246000fd5b61299d8261254f565b810181811067ffffffffffffffff821117156129bc576129bb612965565b5b80604052505050565b60006129cf61243a565b90506129db8282612994565b919050565b600067ffffffffffffffff8211156129fb576129fa612965565b5b612a048261254f565b9050602081019050919050565b82818337600083830152505050565b6000612a33612a2e846129e0565b6129c5565b905082815260208101848484011115612a4f57612a4e612960565b5b612a5a848285612a11565b509392505050565b600082601f830112612a7757612a7661295b565b5b8135612a87848260208601612a20565b91505092915050565b60008060008060808587031215612aaa57612aa9612444565b5b600085013567ffffffffffffffff811115612ac857612ac7612449565b5b612ad487828801612a62565b945050602085013567ffffffffffffffff811115612af557612af4612449565b5b612b0187828801612a62565b935050604085013567ffffffffffffffff811115612b2257612b21612449565b5b612b2e87828801612a62565b925050606085013567ffffffffffffffff811115612b4f57612b4e612449565b5b612b5b87828801612a62565b91505092959194509250565b600060208284031215612b7d57612b7c612444565b5b6000612b8b84828501612691565b91505092915050565b612b9d816124d3565b8114612ba857600080fd5b50565b600081359050612bba81612b94565b92915050565b60008060408385031215612bd757612bd6612444565b5b6000612be585828601612691565b9250506020612bf685828601612bab565b9150509250929050565b600067ffffffffffffffff821115612c1b57612c1a612965565b5b612c248261254f565b9050602081019050919050565b6000612c44612c3f84612c00565b6129c5565b905082815260208101848484011115612c6057612c5f612960565b5b612c6b848285612a11565b509392505050565b600082601f830112612c8857612c8761295b565b5b8135612c98848260208601612c31565b91505092915050565b60008060008060808587031215612cbb57612cba612444565b5b6000612cc987828801612691565b9450506020612cda87828801612691565b9350506040612ceb878288016125dc565b925050606085013567ffffffffffffffff811115612d0c57612d0b612449565b5b612d1887828801612c73565b91505092959194509250565b600081519050919050565b600082825260208201905092915050565b6000819050602082019050919050565b6000612d5c8383612865565b60208301905092915050565b6000602082019050919050565b6000612d8082612d24565b612d8a8185612d2f565b9350612d9583612d40565b8060005b83811015612dc6578151612dad8882612d50565b9750612db883612d68565b925050600181019050612d99565b5085935050505092915050565b60006020820190508181036000830152612ded8184612d75565b905092915050565b60008060408385031215612e0c57612e0b612444565b5b6000612e1a858286016125dc565b9250506020612e2b85828601612bab565b9150509250929050565b60008060408385031215612e4c57612e4b612444565b5b6000612e5a85828601612691565b9250506020612e6b85828601612691565b9150509250929050565b7f4e487b7100000000000000000000000000000000000000000000000000000000600052602260045260246000fd5b60006002820490506001821680612ebc57607f821691505b602082108103612ecf57612ece612e75565b5b50919050565b6000606082019050612eea6000830186612650565b612ef760208301856126e6565b612f046040830184612650565b949350505050565b6000819050919050565b612f27612f22826125bb565b612f0c565b82525050565b600081905092915050565b6000612f4382612509565b612f4d8185612f2d565b9350612f5d818560208601612525565b80840191505092915050565b60008160601b9050919050565b6000612f8182612f69565b9050919050565b6000612f9382612f76565b9050919050565b612fab612fa68261263e565b612f88565b82525050565b6000612fbd8287612f16565b602082019150612fcd8286612f38565b9150612fd98285612f9a565b601482019150612fe98284612f38565b915081905095945050505050565b60008190508160005260206000209050919050565b60006020601f8301049050919050565b600082821b905092915050565b6000600883026130597fffffffffffffffffffffffffffffffffffffffffffffffffffffffffffffffff8261301c565b613063868361301c565b95508019841693508086168417925050509392505050565b6000819050919050565b60006130a061309b613096846125bb565b61307b565b6125bb565b9050919050565b6000819050919050565b6130ba83613085565b6130ce6130c6826130a7565b848454613029565b825550505050565b600090565b6130e36130d6565b6130ee8184846130b1565b505050565b5b81811015613112576131076000826130db565b6001810190506130f4565b5050565b601f8211156131575761312881612ff7565b6131318461300c565b81016020851015613140578190505b61315461314c8561300c565b8301826130f3565b50505b505050565b600082821c905092915050565b600061317a6000198460080261315c565b1980831691505092915050565b60006131938383613169565b9150826002028217905092915050565b6131ac82612509565b67ffffffffffffffff8111156131c5576131c4612965565b5b6131cf8254612ea4565b6131da828285613116565b600060209050601f83116001811461320d57600084156131fb578287015190505b6132058582613187565b86555061326d565b601f19841661321b86612ff7565b60005b828110156132435784890151825560018201915060208501945060208101905061321e565b86831015613260578489015161325c601f891682613169565b8355505b6001600288020188555050505b505050505050565b60006132818285612f38565b915061328d8284612f38565b91508190509392505050565b7f50726f6a65637420616c72656164792076657269666965640000000000000000600082015250565b60006132cf601883612514565b91506132da82613299565b602082019050919050565b600060208201905081810360008301526132fe816132c2565b9050919050565b600081519050919050565b600082825260208201905092915050565b600061332c82613305565b6133368185613310565b9350613346818560208601612525565b61334f8161254f565b840191505092915050565b600060808201905061336f6000830187612650565b61337c6020830186612650565b61338960408301856126e6565b818103606083015261339b8184613321565b905095945050505050565b6000815190506133b58161247a565b92915050565b6000602082840312156133d1576133d0612444565b5b60006133df848285016133a6565b91505092915050565b7f4e487b7100000000000000000000000000000000000000000000000000000000600052601260045260246000fd5b600060408201905061342c6000830185612650565b61343960208301846126e6565b939250505056fea26469706673582212203ae065d908589df1ffaf657e29f33e22f364395f7e99adcfaaf32dadb493211964736f6c63430008140033",
  "linkReferences": {},
  "deployedLinkReferences": {}
}